:100000000C942A000C9447000C9447000C94470071
:100010000C9447000C9447000C9447000C94470044
:100020000C9447000C9447000C9447000C94470034
:100030000C9447000C9447000C9447000C94470024
:100040000C9447000C9447000C9447000C94470014
:100050000C94470011241FBECFE5D8E0DEBFCDBF12
:1000600010E0A0E6B0E0E6E8F3E002C005900D92F3
:10007000AE36B107D9F720E0AEE6B0E001C01D9280
:10008000A637B207E1F70E940D010C94C1010C9450
:100090000000959A0000000082B3807C82BB089526
:1000A0008BBB82B3877E82BB0E9449001BBA089536
:1000B0001ABA949A82B3807F82BBDF9B04C00E94ED
:1000C0004900DF99FCCF8FEF8ABB81E00E9450008E
:1000D00083EF91E00197F1F700C0000088E30E94F0
:1000E000500090E19A95F1F700C08EE00E94500018
:1000F00080E18A95F1F700C008958BBB9498939A9C
:100100000E9449001BBA0895CF93DF93EC018881C8
:10011000882331F021960E947D0089918111FBCFC7
:10012000DF91CF910895E62FF0E0E15AFF4F81581B
:100130009081890F0E945000089561E082E00E9442
:10014000930082E690E00E94840085EA9EE0019799
:10015000F1F700C0000061E087E00E94930086E6AE
:1001600090E00E94840085EA9EE00197F1F700C0CC
:10017000000061E08CE00E94930089E690E00E941C
:10018000840085EA9EE00197F1F700C000004AE094
:1001900064E770E080917200909173000E948C017E
:1001A00062E083E00E94930084E790E00E94840074
:1001B00085EA9EE00197F1F700C000004AE064E79D
:1001C00070E080917000909171000E948C0162E05B
:1001D00088E00E94930084E790E00E94840085EA12
:1001E0009EE00197F1F700C000004AE064E770E08C
:1001F00080916E0090916F000E948C0162E08DE012
:100200000E94930084E790E00E94840085EA9EE0CB
:100210000197F1F700C0000008958FEF8ABB17BA6D
:1002200088E381BB909A919A929AC09AC19AC29A95
:10023000C39AC49AC59A0E9458000E949D00E12C5E
:10024000F12C00E010E0C0E0D0E0B09B04C0B39B14
:1002500002C080991BC0B09BFECFB39BFCCF809B9C
:10026000FACF21964AE064E770E0CE010E948C014B
:1002700062E083E00E94930084E790E00E948400A3
:1002800085EA9EE00197F1F700C00000B19B04C031
:10029000B49B02C081991CC0B19BFECFB49BFCCF24
:1002A000819BFACF0F5F1F4F4AE064E770E0C801FF
:1002B0000E948C0162E088E00E94930084E790E055
:1002C0000E94840085EA9EE00197F1F700C00000DB
:1002D000B29B04C0B59B02C08299B7CFB29BFECF40
:1002E000B59BFCCF829BFACF9FEFE91AF90A4AE04F
:1002F00064E770E0C7010E948C0162E08DE00E941B
:10030000930084E790E00E94840085EA9EE00197D4
:10031000F1F700C0000099CFBB274A3031F4992390
:1003200022F4BDE2909581959F4F0C949801BB27D4
:10033000FB015527AA27880F991FAA1FA41710F0A1
:10034000A41B83955051B9F7A05DAA3308F0A95DAD
:10035000A193009779F7B111B1931192CB010C944D
:10036000B101DC01FC01672F71917723E1F732972E
:1003700004C07C916D9370836291AE17BF07C8F380
:060380000895F894FFCF80
:0E0386000040594553004E4F004E4F4E45006B
:00000001FF
